:030000000204CD2A
:0C04CD00787FE4F6D8FD75810F0205145D
:0F080C00CFB5CDB3D2D1C6F4B6AFA3A10D0A00BC
:1007B3001208411207FB7BFF7A08790C12074512D6
:0A07C300055912002612082880F5DF
:1007FB00439850438920758DF3758BF3D28ED2AF0E
:01080B0022CA
:0C083500C2AC8F993099FDC299D2AC2260
:100745007811EBF208EAF208E9F27811E2FB08E227
:10075500FA08E2F91207CD601A7811E2FB0808E2FF
:10076500F92401F218E2FA3400F21207CDFF12085B
:040775003580D722D2
:030023000207973A
:07079700C0E0C0D075D008DE
:10079E0030980DC298AF99781408E22400F8EFF261
:0507AE00D0D0D0E032C4
:10077900D3EF9400EE940040147D6E7C00ED1D7063
:0D078900011CED4C70F7EF1F70E61E80E3C1
:010796002240
:0608410012001A02001E65
:01001A0022C3
:01001E0022BF
:10042F002A2A2A2A2A2A2A2A2A2A2A2A2A2A38A396
:10043F00A10D0A00C4FAB5B1C7B0B4A6D3DA30B271
:10044F00E3A3ACC7EBD6D8D0C2D1A1D4F1A3A10DF1
:10045F000A00C4FAD2D1B5BDB4EF31B2E3A3A10DF6
:10046F000A00C4FAD2D1B5BDB4EF32B2E3A3A10DE5
:10047F000A00C4FAD2D1B5BDB4EF30B2E3A3A10DD7
:10048F000A00C4FAB5B1C7B0B4A6D3DA31B2E3A348
:10049F00ACC7EBD6D8D0C2D1A1D4F1A3A10D0A001D
:1004AF00C4FAB5B1C7B0B4A6D3DA32B2E3A3ACC7BE
:0E04BF00EBD6D8D0C2D1A1D4F1A3A10D0A0072
:03081B00810A004F
:10002600120003780BE2600302016E780AE21460A4
:10003600731470030200F42402600302016E7BFF56
:100046007A04792F12074512062FEF700F780AF2FD
:100056007BFF7A04794312074502016E12062FBF11
:10006600011012001A7810E26401600302016E02A8
:10007600012C12062FEF6402600302016E12001AB1
:100086007810E26401600302016E12001E120683FC
:100096007BFF7A04797112074512001A780A7403F5
:1000A600F202016E12062FEF70121206C912001A22
:1000B6007810E26401600302016E804512062FBFCC
:1000C60001121206C912001A7810E26401600302D6
:1000D600016E805212062FEF6402600302016E1257
:1000E60006C912001A7810E26401707C8063120659
:1000F6002FEF701F1206C912001A7810E264017001
:100106006712001E7BFF7A047943120745E4780ADA
:10011600F2805512062FBF01261206C912001A7860
:1001260010E26401704212001E1206837BFF7A04FD
:10013600796112074512001A780A7401F2802912B1
:10014600062FBF02231206C912001A7810E2B40164
:100156001712001E1206837BFF7A04797112074577
:1001660012001A780A7402F2780BE26401600A78C7
:100176000CE2640160030202DE780AE214700302F4
:10018600021A147003020267240260030202DE12DE
:10019600062FEF702512068312001A7810E264010A
:1001A60060030202DE12001E1206C97BFF7A047982
:1001B6008112074512001A0202AE12062FBF011F56
:1001C60012068312001A7810E2640160030202DE4E
:1001D60012001E7BFF7A0479911207450202AE12C5
:1001E600062FEF640260030202DE12068312001A73
:1001F6007810E2640160030202DE12001E1206831A
:100206007BFF7A04797112074512001A780A740383
:10021600F20202DE12062FEF700F12001A7810E2B9
:10022600640160030202DE804B12062FBF011B121F
:10023600001A7810E2640160030202DE12001E7BDF
:10024600FF7A047991120745805E12062FEF640249
:1002560060030202DE12001A7810E26401707980EF
:100266006012062FEF70221206C912001A7810E2E9
:100276006401706412001E1206C97BFF7A0479813C
:10028600120745E4780AF2804F12062FBF012012AA
:1002960006C912001A7810E26401703C12001E7B37
:1002A600FF7A047991120745780A7401F2802912BF
:1002B600062FBF02231206C912001A7810E2B401F3
:1002C6001712001E1206837BFF7A04797112074506
:1002D60012001A780A7402F2780CE26402600302D1
:1002E600042E780AE214700302036F1470030203EB
:1002F600C52402600302042E12062FEF7025120693
:100306008312001A7810E26401600302042E1200C0
:100316001E1206C97BFF7A04798112074512001A5C
:1003260002040812062FBF012212068312001A7851
:1003360010E26401600302042E12001E1206C97B3D
:10034600FF7A04796112074502040812062FEF644A
:1003560002600302042E12068312001A7810E26469
:1003660001600302042E02041D12062FEF70121202
:10037600068312001A7810E26401600302042E80DC
:100386004E12062FBF012112068312001A7810E2C0
:100396006401600302042E12001E1206C97BFF7A56
:1003A600047961120745805A12062FEF64027078AD
:1003B60012068312001A7810E26401706B805812DC
:1003C600062FEF701E12001A7810E264017059129F
:1003D600001E1206C97BFF7A047981120745E4786C
:1003E6000AF22212062FBF011F12001A7810E264C9
:1003F60001703512001E1206C97BFF7A047961125C
:100406000745780A7401F22212062FBF021A12005B
:100416001A7810E2B4011112001E7BFF7A0479AF3C
:09042600120745780A7402F22263
:1005CD00B0B4CFC230B2E3B0B4BCFC0D0A00B0B4CD
:1005DD00CFC231B2E3B0B4BCFC0D0A00B0B4CFC28F
:1005ED0032B2E3B0B4BCFC0D0A00B0B4CFC230B22D
:1005FD00E3C9CFBCFC0D0A00B0B4CFC231B2E3C920
:10060D00CFBCFC0D0A00B0B4CFC231B2E3CFC2BC37
:10061D00FC0D0A00B0B4CFC232B2E3CFC2BCFC0DA8
:02062D000A00C1
:10062F0020A0187F027E0012077920A044D2907B71
:10063F00FF7A0579CD1207457F002220A1187F028E
:10064F007E0012077920A129D2917BFF7A0579DBF1
:10065F001207457F012220A2187F027E0012077920
:10066F0020A20ED2927BFF7A0579E91207457F020D
:04067F00227F0322B1
:1005590020A3197F027E0012077920A30FD293E40A
:10056900780BF27BFF7A0579F712074520A41A7FE9
:10057900027E0012077920A410D294780B7401F23C
:100589007BFF7A06790512074520A51A7F027E00AE
:1005990012077920A510D295780C7401F27BFF7AA5
:1005A90006791312074520A61A7F027E00120779E1
:1005B90020A610D296780C7402F27BFF7A06792174
:0405C90012074522AE
:09081E00810D00810F00810E0024
:0D082800D2AFD2ABE589540F4420F58922F0
:1007E600EFD3940340027F03EF7003C28E22D28EB2
:0507F600780DEFF22276
:10068300C297D2B712062FBF011A7F057E00120749
:10069300797F011207E67F107E271207797F011207
:1006A30007E6C2B712062FBF02DA7F057E001207E4
:1006B300797F011207E67F507E461207797F011288
:0606C30007E6C2B780BE8D
:1006C900D297C2B712062FBF011A7F057E00120703
:1006D900797F011207E67F107E271207797F0112C1
:1006E90007E6C29712062FBF02DA7F057E001207BE
:1006F900797F011207E67F507E461207797F011242
:0607090007E6C29780BE66
:03001B0002070FCA
:10070F00C0E0C0D075D000C000C007780DE2FF7800
:10071F000FE2C39F5006D297D2B78004C297C2B7D9
:10072F00780FE204F2E2C394044002E4F2D007D05F
:06073F0000D0D0D0E03232
:100003007807E2B40805E47810F2227808E2B4092C
:070013000578107401F222D0
:1004D9000207B3E493A3F8E493A34003F68001F27F
:1004E90008DFF48029E493A3F85407240CC8C33324
:1004F900C4540F4420C8834004F456800146F6DFF3
:10050900E4800B010204081020408090081BE47E5F
:10051900019360BCA3FF543F30E509541FFEE493E7
:10052900A360010ECF54C025E060A840B8E493A3AE
:10053900FAE493A3F8E493A3C8C582C8CAC583CAD9
:10054900F0A3C8C582C8CAC583CADFE9DEE780BE91
:0108270000D0
:1007CD00BB010689828A83E0225002E722BBFE022A
:0907DD00E32289828A83E493225D
:00000001FF
